:020000040800F2
:10000000C807002005030008D13B0008C93B0008D1
:10001000CD3B0008F1050008CD4500081703000896
:10002000000000000000000000000000C13D0008CA
:10003000F505000800000000D53B0008C53D00089C
:100040002103000821030008210300082103000800
:1000500021030008210300082103000821030008F0
:1000600021030008210300082103000821030008E0
:1000700021030008210300082103000821030008D0
:1000800021030008210300082103000821030008C0
:1000900021030008210300082103000821030008B0
:1000A00021030008210300082103000821030008A0
:1000B00000000000210300082103000821030008BC
:1000C0002103000821030008210300082103000880
:1000D0002103000821030008210300082103000870
:1000E0002103000821030008210300082103000860
:1000F0002103000821030008210300082103000850
:10010000210300082103000821030008210300083F
:10011000210300082103000821030008210300082F
:10012000210300082103000821030008210300081F
:1001300021030008B545000821030008C145000857
:1001400021030008210300082103000821030008FF
:1001500021030008210300082103000821030008EF
:1001600021030008210300082103000821030008DF
:1001700021030008210300082103000821030008CF
:1001800021030008210300082103000821030008BF
:1001900021030008210300082103000821030008AF
:1001A000210300082103000821030008210300089F
:1001B00021030008000000002103000821030008BB
:1001C00021030008000000002103000821030008AB
:1001D000210300082103000821030008210300086F
:1001E000210300082103000821030008210300085F
:1001F00000000000000000002103000821030008A7
:10020000210300082103000821030008210300083E
:10021000210300082103000821030008210300082E
:10022000210300082103000821030008210300081E
:10023000210300082103000800F002F800F052F842
:1002400014A696E8000CB244B344DA4501D100F09C
:1002500049F8BAE80F000FA696E83000A5EB0405B0
:1002600004EB0607AAEB0704A7F101074FEA1515EF
:100270004FEA3414A4F10104AC4201D300F032F887
:1002800013F0010F18BFFB1A43F0010300F001F84F
:10029000DBE71847504B0000704B0000103A24BFBA
:1002A00078C878C1FAD8520724BF30C830C144BFDB
:1002B00004680C60704700007047000000230024B1
:1002C00000250026103A28BF78C1FBD8520728BF66
:1002D00030C148BF0B6070471FB504F0F5FC1FBD6F
:1002E00010B510BD00F049F91146FFF7F5FF04F015
:1002F0006FF900F067F903B4FFF7F2FF03BC00F0F9
:100300006FF900000A4880470A480047FEE7FEE709
:10031000FEE7FEE7FEE7FEE7FEE7FEE7FEE7FEE7B5
:10032000FEE7000004480549054A064B70470000F7
:10033000C93D000839020008C8010020C807002094
:10034000C8030020C803002053EA020C00F06980B3
:100350002DE9F04B4FF00006002B1FBFB3FA83F5D9
:1003600003FA05F424FA05F65E4012BF1643B2FA0A
:1003700082F502FA05F4C5F120051EBF22FA05FC3C
:1003800044EA0C04203556EA044C4FEA144418BFE2
:10039000641C4FF000084FF00009904271EB030C11
:1003A00039D3002919BFB1FA81F701FA07F6B0FA7B
:1003B00080F700FA07F6C7F120071EBF20FA07FCF6
:1003C00046EA0C062037B6FBF4FCA7EB0507103F06
:1003D00007F01F0BCBF120062CFA06F60CFA0BFBEC
:1003E00044BFB3460026202FA4BF5E464FF0000B4B
:1003F0005BEA060C08BF4FF0010B19EB0B0948EB49
:100400000608ABFB027C06FB02CC0BFB03CCC01B3B
:1004100071EB0C01C1E70B46024641464846BDE878
:10042000F08B13B5084318BF4FF0FF300146AFF310
:100430000080BDE81C407047032A40F2308010F075
:10044000030C00F0158011F8013BBCF1020F62446F
:1004500098BF11F801CB00F8013B38BF11F8013B00
:10046000A2F1040298BF00F801CB38BF00F8013BAD
:1004700011F0030300F04F80083AC0F0088051F8F3
:10048000043B083A51F804CBA0E80810F5E7121D28
:100490005CBF51F8043B40F8043BAFF30080D20747
:1004A00024BF11F8013B11F801CB48BF11F8012B13
:1004B00024BF00F8013B00F801CB48BF00F8012B36
:1004C00070474FF0000200B5134694469646203917
:1004D00022BFA0E80C50A0E80C50B1F12001BFF4FD
:1004E000F7AF090728BFA0E80C5048BF0CC05DF863
:1004F00004EB890028BF40F8042B08BF704748BFB1
:1005000020F8022B11F0804F18BF00F8012B704724
:1005100070477047704710B5203AC0F00B80B1E8C3
:100520001850A0E81850B1E81850A0E81850203A28
:10053000BFF4F5AF5FEA027C24BFB1E81850A0E831
:10054000185044BF18C918C0BDE810405FEA827C4B
:1005500024BF51F8043B40F8043B08BF7047D20762
:1005600028BF31F8023B48BF11F8012B28BF20F803
:10057000023B48BF00F8012B7047754600F02CF88D
:10058000AE4605006946534620F00700854618B080
:1005900020B5FFF7C7FEBDE820404FF000064FF042
:1005A00000074FF000084FF0000BAC46ACE8C00964
:1005B000ACE8C009ACE8C009ACE8C00921F007010B
:1005C0008D46704710B50446AFF300802046BDE865
:1005D0001040FFF790BE0000004870471000002058
:1005E00001491820ABBEFEE726000200704700005C
:1005F000FEE700007047000072B600BFFEE7000093
:10060000B0B5044600F09AF9002C04BF0120B0BD3B
:10061000054694F85400022824D12068416941F02D
:1006200004014161052084F8540000BF2168086975
:1006300080041FD400F082F9401B0628F6D3A06D79
:1006400040F01000A065032084F8540094F8500096
:1006500000064FF0010001D5616F0873002184F896
:100660004C10B0BD2020A0650120002184F84C1062
:10067000B0BD00BF4869012240F00200486104207B
:1006800084F854004FF4FE40C86084F8542094F875
:10069000500000064FF00000E0D5636F1A738864C5
:1006A000002184F84C10B0BD80B190F8541002299C
:1006B0000AD1042180F85410006842F20402416912
:1006C000114341610020704720218165012070475E
:1006D000B0B5044600F032F9054640F20000C2F21F
:1006E00000000078611C18BF044400BF00F026F928
:1006F000401BA042FAD3B0BD2DE9F04F83B00E6885
:10070000002E00F0178181462030019047F67F705F
:10071000C0F22F0000EA9920002200234FF0010BC5
:1007200000274FF00008C4F20262CA464FF0000CE6
:1007300000900FE00022C4F202620E680CF1010C7E
:1007400036FA0CF008F1020807F1040703F1080378
:1007500000F0F0800BFA0CF516EA0500EDD091459B
:10076000029025D04E6846F01002122A5ED16FF03A
:10077000030000EA5C02019807F01C0550F802E053
:100780000E690F24AC4006F00F062EEA0404AE40BA
:1007900026438650DAF8002003204E6800FA08F558
:1007A000AA4306F0030505FA08F52A4349E000BF0D
:1007B00010684E6844F6FC4406F00106A84306FAA9
:1007C0000CF6C0F60004304304EBCC061060D6F8FB
:1007D00004E06FF0030054F83CA000EA5E051C2022
:1007E000554400EA8E06D5F820B00F22484602FA9A
:1007F00006F92BEA090281460B2000FA06F632437D
:100800002A62DAF800204FEA4E05032000FA05F6C6
:100810000220B24300FA05F52A43CAF800204E68C8
:100820004FF0010B122E11D936E000BFDAF800208C
:10083000032000FA08F5AA4306F0030505FA08F5B7
:100840002A43E646CAF80020122E25D80BFA06F2F3
:1008500012F0061F1AD04FEA4E040320DAF80820DF
:1008600000FA04F5C868AA43A0401043CAF808007B
:10087000DAF804000BFA0EF29043320902FA0EF293
:100880001043032ECAF8040002D005E0032E03D162
:10089000886801283FF44EAFDAF80C004FEA4E02A8
:1008A00003258C689540A84304FA02F21043F20035
:1008B000CAF80C007FF53EAF42F2000E2CF00300A8
:1008C000C4F2026E7044026E03F018060F25B540A4
:1008D000AA43009D05FA06F632430266DEF80000E0
:1008E000029C4A6840EA0406D50258BF20EA040682
:1008F000CEF80060DEF80400950240EA040658BF16
:1009000020EA0406CEF80460DEF88400950340EA8D
:10091000040658BF20EA0406CEF88460DEF88000A2
:10092000D20340EA040658BF20EA0406CEF88060ED
:1009300000E700BF03B0BDE8F08F000040F2C01038
:10094000C2F200000068704740F2000040F2C0119F
:10095000C2F20000C2F2000100780A681044086088
:100960007047000080B542F20000C4F20200016846
:1009700041F480710160032000F0DAF801F0F6FC28
:1009800040F62041C4F20261096844F6E24201F0F7
:100990000F01C0F60002515CC84040F20801C2F2EB
:1009A00000010860042002F021FB0F2000F008F88D
:1009B00000281CBF012080BD00F056F8002080BD3B
:1009C000B0B540F20005C2F200052978E1B3044653
:1009D0004EF21000CEF200000068400710D402F082
:1009E00053FB022824D001281AD078BB40F208001B
:1009F000C2F20000006829784FF4FA5207E000BF05
:100A000040F20800C2F2000000684FF47A72B2FBB4
:100A1000F1F1B0FBF1F002F025FBA8B91BE000BF3B
:100A200028784FF47A71B1FBF0F04FF4FA4106E008
:100A300028784FF47A71B1FBF0F04FF40041B1FB2C
:100A4000F0F002F00FFB30B10120B0BD002002F049
:100A500009FB0028F8D14FF0FF302146002200F0BA
:100A60003BF800206C60B0BD81B040F69440C4F209
:100A70000260016841F004010160006800F00400B8
:100A80000090009801B07047002848BF70471C22B2
:100A900000F01F0102EAD000012202FA01F14EF239
:100AA0008012CEF200028150BFF34F8FBFF36F8FE1
:100AB00070470000002848BF70471C2200F01F014B
:100AC00002EAD000012202FA01F14EF20012CEF247
:100AD000000281507047000010B54EF60C5CCEF25B
:100AE000000CDCF80030C3F3022E8EF00704042C57
:100AF00028BF0424BEF103034FF0FF3E38BF00239C
:100B00000EFA04F4A14399400EFA03F39A431143F9
:100B100000F00F0200F160430901043A03F5644359
:100B20006244002848BF02F10C03197010BD000098
:100B30004EF60C51CEF200010A684FF6FF031A4040
:100B400060F30A2242F0806040F0FD700860704758
:100B500040F60C0CC4F2026CDCF8302002F4403297
:100B600082420BD1B0F1011F68D3DCF8000040F4E1
:100B70008020CCF800000020704700BFDCF8002087
:100B8000B0F5803F22F4E02242EA000240F2080081
:100B900088BF42F48022CCF80020C2F20000006836
:100BA00041F25972CDF2B712A0FB0202900B03463C
:100BB000DCF80010B3F1FF3218BF012209041ED483
:100BC000591C1CD0DCF80010002B1A4618BF01225B
:100BD000090414D49BB1DCF800105A1E18BF01227E
:100BE00009040CD4012B0AD0DCF800109A1E18BF9F
:100BF0000122090403D4022BA3F10403D8D112B3B8
:100C0000DCF83010421C090416D4AAB1DCF830100C
:100C1000090412D488B1DCF83010090410D401287A
:100C20000ED0DCF83010021F090402D4022810464E
:100C3000E6D1901C10B906E0104620B100207047A4
:100C400001380028FAD103207047000040F63C002C
:100C5000C4F20260006800F440307047B0B540F65E
:100C6000284EC4F2026EDEF80C50DEF80030DEF8DA
:100C70000010DEF80020DEF81040D206E40804EA96
:100C8000E272C1F3032103F003036FF35F3201F15A
:100C9000010C00EE102A6FF35F25B8EE400ADFE882
:100CA00003F003030B0B00BF5EF8201C09025DD4A8
:100CB000DEF8CC100B045BE001EE10CA9FED472A72
:100CC000B8EE411ADEF80C1082EE011A6FF35F21C4
:100CD00002EE101A9FED403AB8EE422A20EE030AC7
:100CE00030EE020AB7EE002A30EE020A21EE000AC8
:100CF000DEF80010C90360D5DEF80C10C1F3462100
:100D0000013101EE101AB8EE411A80EE011ABCEE64
:100D1000C11A11EE102A0260DEF80010890352D5C4
:100D2000DEF80C10C1F30641013101EE101AB8EEE5
:100D3000411A80EE011ABCEEC11A11EE102A42606F
:100D4000DEF80010490344D5DEF80C10C1F306614B
:100D5000013101EE101AB8EE411A80EE010ABCEE24
:100D6000C00A10EE101A8160B0BD00BF5EF8203CD2
:100D700044F67C52190FC0F6000202EB810102EE2C
:100D800010CA91ED001AB8EE422AB8EE411A9FED52
:100D9000123A81EE021A02EE105A20EE030AB8EE61
:100DA000422A30EE020AB7EE002A30EE020A20EEA6
:100DB000010ADEF80010C9039ED400220260DEF8AA
:100DC00000108903ACD400224260DEF80010490311
:100DD000BAD400218160B0BD000000390024744BFA
:100DE000B0B540F62C4EC4F2026EDEF81050DEF8BC
:100DF0000030DEF80010DEF80020DEF81440D206E5
:100E0000E40804EAE272C1F3032103F003036FF381
:100E10005F3201F1010C00EE102A6FF35F25B8EE8E
:100E2000400ADFE803F003030B0B00BF5EF8241C4D
:100E300009025DD4DEF8C8100B045BE001EE10CAB5
:100E40009FED472AB8EE411ADEF8101082EE011A23
:100E50006FF35F2102EE101A9FED403AB8EE422A7E
:100E600020EE030A30EE020AB7EE002A30EE020A44
:100E700021EE000ADEF80010C90360D5DEF810107C
:100E8000C1F34621013101EE101AB8EE411A80EE8D
:100E9000011ABCEEC11A11EE102A0260DEF8001031
:100EA000890352D5DEF81010C1F30641013101EE7D
:100EB000101AB8EE411A80EE011ABCEEC11A11EEFA
:100EC000102A4260DEF80010490344D5DEF8101005
:100ED000C1F30661013101EE101AB8EE411A80EE3D
:100EE000010ABCEEC00A10EE101A8160B0BD00BF4E
:100EF0005EF8243C44F67C52190FC0F6000202EB67
:100F0000810102EE10CA91ED001AB8EE422AB8EE45
:100F1000411A9FED123A81EE021A02EE105A20EEAB
:100F2000030AB8EE422A30EE020AB7EE002A30EE8B
:100F3000020A20EE010ADEF80010C9039ED4002246
:100F40000260DEF800108903ACD400224260DEF8B3
:100F500000104903BAD400218160B0BD00000039FF
:100F60000024744BB0B540F6304EC4F2026EDEF889
:100F70001450DEF80030DEF80010DEF80020DEF855
:100F80001840D206E40804EAE272C1F3032103F038
:100F900003036FF35F3201F1010C00EE102A6FF3CF
:100FA0005F25B8EE400ADFE803F003030B0B00BF38
:100FB0005EF8281C09025DD4DEF8C4100B045BE067
:100FC00001EE10CA9FED472AB8EE411ADEF8141060
:100FD00082EE011A6FF35F2102EE101A9FED403A84
:100FE000B8EE422A20EE030A30EE020AB7EE002ADB
:100FF00030EE020A21EE000ADEF80010C90360D5C7
:10100000DEF81410C1F34621013101EE101AB8EEDA
:10101000411A80EE011ABCEEC11A11EE102A0260CC
:10102000DEF80010890352D5DEF81410C1F3064132
:10103000013101EE101AB8EE411A80EE011ABCEE31
:10104000C11A11EE102A4260DEF80010490344D59F
:10105000DEF81410C1F30661013101EE101AB8EE8A
:10106000411A80EE010ABCEEC00A10EE101A81602F
:10107000B0BD00BF5EF8283C44F67C52190FC0F6A4
:10108000000202EB810102EE10CA91ED001AB8EEE7
:10109000422AB8EE411A9FED123A81EE021A02EE90
:1010A000105A20EE030AB8EE422A30EE020AB7EEDA
:1010B000002A30EE020A20EE010ADEF80010C90311
:1010C0009ED400220260DEF800108903ACD4002216
:1010D0004260DEF800104903BAD400218160B0BD3F
:1010E000000000390024744B80B584B0024647F6F6
:1010F000FF7300209B1A70EB0103C0F26D80D2F1E8
:101100007F0370EB0103C0F2A380013A61F100019B
:10111000D2F13F034FF0000373EB0101C0F04A84AA
:10112000DFE812F040005A02480404024804480470
:101130004804EA01480448044804480448044804B0
:1011400048041E024804480448044804480448046B
:10115000480448044804480448044804480448042F
:101160004804C601480448044804480448044804A4
:10117000480448044804480448044804480448040F
:1011800048044804480448044804480448044804FF
:1011900048044804480448044804480448044804EF
:1011A00048043A0240F60040C4F20260D0F8E01071
:1011B00001F00301012900F05183002900F0F882B9
:1011C0000268022903D112F4806240F09E83D0F8B5
:1011D000F00003294FE200BF4FF6FF73C0F23F0358
:1011E0009B1A70EB010367DB4FF6FF73C0F203033A
:1011F0009B1A4FF0000C7CEB010380F285804FF6C8
:10120000FF73C0F20F039B1A7CEB0103C0F2EE8068
:1012100082F480230B4300F0F98182F40022114311
:1012200040F0C88340F60040C4F20260D0F8E410F9
:10123000026801F44051920440F12483002940F0F7
:10124000218346F60040C0F2DC2004B080BD00BF20
:1012500040F2FF339B1A4FF0000C7CEB010380F24D
:10126000778041F6FF739B1A7CEB0103C0F2DC80B0
:1012700082F480630B4300F0DF8182F4006211434B
:1012800040F0988340F60040C4F20260D0F8E810C5
:1012900011F4407100F09282D0F8F020B1F5807F17
:1012A00003D112F0006240F000830268B1F5007FC4
:1012B00000F069816BE100BF6FF07E439B1A4FF035
:1012C000000C7CEB010380F273806FF078439B1A73
:1012D0007CEB0103C0F2C68082F000730B4300F088
:1012E000D38182F08062114340F0648340F6004075
:1012F000C4F20260D0F8E410C1F30151DFE811F04C
:10130000AE025E021A02B40282F400430B4300F004
:10131000618282F480330B4300F0128282F4003247
:10132000114340F0478340F60041C4F20261D1F816
:10133000E800C0F30242042A00F2CC824BF680306F
:10134000DFE812F058021202D60238039A0200BFF8
:1013500082F080030B4300F0538282F480730B43CE
:1013600000F0088282F40072114340F0238340F6BB
:101370000040C4F20260D0F8E81011F4406100F0BF
:10138000A582D0F8F020B1F5806F03D112F0006291
:1013900040F08B820268B1F5006F03D112F48062D5
:1013A00040F0B382D0F8F000B1F5406F63E100BFC8
:1013B00082F480030B4300F03F8282F400030B436E
:1013C00000F0EA8182F08072114340F0F38240F62F
:1013D0000040C4F20260D0F8E010C1F30141DFE840
:1013E00011F038023D02F701ED0100BF82F48013D5
:1013F0000B4300F0578182F40012114340F0DA826F
:1014000040F60040C4F20260D0F8E410490400F154
:10141000AB81D0F8E010C1F38161DFE811F0510138
:1014200025028B01CF0100BF82F400530B4300F073
:10143000518182F48042114340F0BC8240F6004169
:10144000C4F20261D1F8E400C0F30222042A00F2DF
:1014500041824BF68030DFE812F033025101870100
:10146000AD02410282F000630B4300F04D8182F037
:101470008052114340F09E8240F60041C4F2026166
:10148000D1F8E800D1F8F020920700F4004202D52C
:10149000002A00F0CC80D1F8F00000014FF00000ED
:1014A00040F18882002A00F08582D1F8F000FEE148
:1014B00040F60041C4F20261D1F8E80000F00700F4
:1014C000012800F0CB81002800F060810A68022822
:1014D00003D112F4806240F01882D1F8F020032882
:1014E00003D112F0020240F0A2800A6804284FF0F3
:1014F000000000F055825DE240F60040C4F2026058
:10150000D0F8E01001F0C001402900F0A7810029C7
:1015100000F09F810268802903D112F4806240F0BC
:10152000F481D0F8F000C029A5E000BF40F60040EB
:10153000C4F20260D0F8E01001F03001102900F090
:101540008D81002900F085810268202903D112F4E1
:10155000806240F0DA81D0F8F00030298BE000BFE3
:1015600040F60040C4F20260D0F8E01001F440718F
:10157000B1F5807F00F07281002900F06A81026875
:10158000B1F5007F03D112F4806240F0BE81D0F843
:10159000F000B1F5407F6EE040F60041C4F2026118
:1015A000D1F8E00000F44060B0F5806F00F05681A3
:1015B000002800F04E810A68B0F5006F03D112F4E4
:1015C000806240F0A2810A68B0F5406F4FF00000E1
:1015D00000F0E681EEE100BF40F60040C4F2026098
:1015E000D0F8E01001F00C01042900F03781002947
:1015F00000F02F810268082903D112F4806240F0C4
:101600008481D0F8F0000C2935E000BF40F600409E
:10161000C4F20260D0F8F010D0F8F02001F440716C
:10162000920740F13B81B1F5807F40F037814FF464
:10163000004004B080BD00BF40F60040C4F202602C
:10164000D0F8E01011F4402100F00381D0F8F02030
:10165000B1F5802F03D112F0006240F026810268BC
:10166000B1F5002F03D112F4806240F04E81D0F822
:10167000F000B1F5402F00F002024FF0000008BF6B
:10168000900304B080BD00BF40F60040C4F2026089
:10169000D0F8E810C1F3C101DFE811F07800E000F4
:1016A0009A00900040F60040C4F20260D0F8E010CA
:1016B000C1F38161DFE811F00400D8003E00820030
:1016C000006846F600418004C0F2DC2101EAE070C7
:1016D00004B080BD40F60041C4F20261D1F8E400DC
:1016E000C0F34212042A00F2F5804BF68030DFE8A6
:1016F00012F0E70005003B006101F50001A8FFF7CB
:1017000031FC019804B080BD40F60040C4F2026094
:10171000D0F8E0100068800301F0407002D5002886
:1017200000F0F380B0F1007F00F0CA80B0F1807F5C
:1017300040F0D08001A8FFF791FA029804B080BD74
:1017400040F60041C4F20261D1F8E40000F0070263
:10175000042A00F2BF804BF68030DFE812F04B0025
:101760000500C9002B018D0001A8FFF777FA019849
:1017700004B080BD40F60040C4F20260D0F8E8102A
:10178000C1F38111DFE801F0026A241A04B0BDE858
:10179000804000F0CBBD00BF40F60040C4F20260C4
:1017A000D0F8E010C1F30151DFE801F0025812084F
:1017B00004B0BDE8804000F099BD00BF0168890613
:1017C00040F188808168090254D4D0F8F400EFE039
:1017D000006884E040F60041C4F20261D1F8E800FC
:1017E000C0F30232052A00F2BB80DFE802F00337C3
:1017F000B3B9B94504B0BDE8804000F041BD00BFB9
:1018000040F60041C4F20261D1F8E00000F440501B
:10181000B0F5805F22D0E0B10A68B0F5005F02D178
:1018200012F4806271D10A68B0F5405F4FF0000099
:1018300000F0B680BEE000BF40F60041C4F2026195
:10184000D1F8E00000F44040B0F5804F06D0002809
:1018500054D104B0BDE8804000F028BD04B0BDE81C
:10186000804000F083BD00BF01A8FFF7B9FA0298DD
:1018700004B080BD8068A0E00868800600F1938015
:1018800028E000BF0268920446D5B1F5805F43D1DD
:1018900043F20060C0F26E1004B080BDD0F8F020BA
:1018A000120147D5B1F5007F44D1D0F8F000C00057
:1018B0004FF0FA0058BF4FF4FA4004B080BD00BFAB
:1018C00001A8FFF78DFA019804B080BD0168890670
:1018D0003FF578AF002004B080BD00BF086842F239
:1018E00000414005C0F2F40101EAE07004B080BD9F
:1018F00001A8FFF737FB029804B080BD0A68B0F575
:10190000004F47D112F4806244D042F20040C0F24E
:10191000F40004B080BD00BF0068B1F5005F00F4C2
:1019200080624FF0000004BF42F20040C0F2F400B9
:101930000CE000BF0068B1F5407F00F400324FF0CA
:10194000000004BF4AF22010C0F20700002A08BFBE
:1019500010462FE001A8FFF743FA039804B080BDBA
:1019600000F4E0420B6842F20040B2F5405FC0F282
:10197000F40002D113F400331CD1096811F4806122
:1019800018BF0146B2F5804F18BF0021084604B0C9
:1019900080BD00BF0A68B0F5404F4FF0000009D18C
:1019A00012F0200206D08868000205D4D1F8F400B5
:1019B000000402E004B080BD8868C0F3036044F610
:1019C0007C51C0F6000151F8200004B080BD000039
:1019D0002DE9F04F81B00446006840F6E046C107AB
:1019E000C4F202661ED1810724D441072AD401071C
:1019F00030D4C10636D481063CD4410642D4010617
:101A000048D4C1054ED4410254D481055AD441056D
:101A100060D4010566D440F628488004C4F2026808
:101A20006DD494E03168226D21F0030111433160DF
:101A30008107DAD53168626D21F00C011143316004
:101A40004107D4D53168A26D21F0300111433160D6
:101A50000107CED53168E26D21F0C001114331603C
:101A6000C106C8D53168226E21F44071114331603E
:101A70008106C2D5B168626E21F007011143B160E1
:101A80004106BCD53168A26E21F44061114331603A
:101A90000106B6D53168E26E21F440511143316040
:101AA000C105B0D5B168226F21F0C0011143B1600A
:101AB0004102AAD53168626F21F44041114331607F
:101AC0008105A4D5B168A26F21F440611143B160D2
:101AD00041059ED53168E26F21F440211143316008
:101AE000010598D5B168D4F8802021F440711143E4
:101AF000B16040F628488004C4F2026827D5D4F8C3
:101B000090004FEA7011042928D8DFE801F0031390
:101B10000B1B1B0004F1080002F05EF80546B8B983
:101B20000EE000BFD8F8001041F48031C8F8001072
:101B300008E000BF04F12C0002F0C8F8054638B9EF
:101B4000D4F89000716821F0E0010843706000252E
:101B50006078400606D4284629E000BF0125607859
:101B60004006F8D5D4F894004FEA3021042939D83A
:101B70002846DFE801F0032F0B12120004F10800E1
:101B800002F02AF8074698B909E000BFD8F800002B
:101B900040F48030C8F800002846074640B9706815
:101BA000D4F8941020F4E0600843706000202F46C1
:101BB0006178090629D5D4F8A4104FEA31310529F6
:101BC00000F2C681022911D00546B0B1A178C9073B
:101BD0001FD13BE004F12C0002F078F80028074602
:101BE000E6D1DCE701200127E2E700BF04F10800AD
:101BF00001F0F2FF00280546E8D1B068D4F8A4103F
:101C000020F4E0400843B06000203D46A178C907B9
:101C10001CD0D4F88810042900F29281DFE811F07A
:101C20000C0006007C010C000C0000BFD8F800106E
:101C300041F48031C8F80010074640B97068D4F804
:101C4000881020F007000843706000202F46A1781C
:101C500089071DD5D4F88C104FEA3141042900F2D0
:101C60007381DFE811F00B00050063010B000B002E
:101C7000D8F8001041F48031C8F80010824640B90D
:101C8000B068D4F88C1020F4E0200843B060002045
:101C9000BA46A178490701D4574659E0834656F819
:101CA0004C0C5FEA40790BD456F84C0C40F0040021
:101CB00046F84C0C56F84C0C00F0040000900098CC
:101CC0004FF60047CFF6FF7758F8070040F00100C5
:101CD00048F80700FEF732FE054600BF58F8070037
:101CE000C00707D1FEF72AFE401B0228F6D90320C1
:101CF000032724E05846BBF1000F5F461FD130692F
:101D000010F4407012D0D4F8BC1088420BD0306967
:101D1000316920F4407041F480313161316921F43E
:101D2000803131613061C00740F01A813069D4F8E8
:101D3000BC1020F440700843306100205746B9F1D0
:101D4000000F05D456F84C1C21F0040146F84C1C39
:101D5000A178C90618D5D4F89C104FEAB1610329BF
:101D600000F2D080DFE801F00602C20604F10800AC
:101D700001F032FF024640B93068D4F89C1020F0E0
:101D800040600843306000203A4621680B031DD5AF
:101D9000D4F8983033B1B3F5005F18BFB3F5805F66
:101DA00040F0B480054658B18A0212D40A0222D407
:101DB000CA0129D48A0130D4490137D459E000BF7F
:101DC000706820F4405018437060002015468A0265
:101DD000ECD5D4F8A020B2F5804F05D1D8F800306A
:101DE00043F48033C8F80030736823F480431A4307
:101DF00072600A02DCD53268D4F8B03022F44012A6
:101E00001A433260CA01D5D53268D4F8B43022F40E
:101E100040321A4332608A01CED5B268D4F8B83065
:101E200022F018021A43B260490122D5D4F8AC104E
:101E3000B1F5401F0ED0B1F5001F05D1D8F8001044
:101E400041F40031C8F80010074650B1E1780907A5
:101E500013D436E004F1080001F0BEFE0028074666
:101E6000F4D17068D4F8AC1020F4401008437060CE
:101E700000202F46E178090723D5D4F8841059B102
:101E8000B1F1007F10D0B1F1807F29D1D8F80010D6
:101E900041F40031C8F8001060B1E178C90614D4EB
:101EA00001B0BDE8F08F00BF04F1080001F094FE1E
:101EB0000028F2D13068D4F8841020F04070084334
:101EC00030603846E178C906EAD5B168D4F8A82070
:101ED00021F400411143B16001B0BDE8F08F00BFB3
:101EE0000120E178C906DBD5EFE700BFD8F8001084
:101EF00041F40031C8F80010002802467FF445AFD5
:101F00003AE700BF012001223FE700BF0120012581
:101F10008A027FF54BAF5CE704F12C0001F0D6FE9E
:101F2000002807467FF493AE88E600BF04F12C003A
:101F300001F0CCFE002882467FF4ABAEA0E600BFE5
:101F40000120012783E600BF01204FF0010AA0E62F
:101F500001200125A178C9077FF45BAE76E600BFBA
:101F6000FEF7ECFC054641F2883B03273069800709
:101F70003FF5DCAEFEF7E2FC411B03205945F5D9E5
:101F8000DDE600002DE9F04F81B0002800F01C8153
:101F900042F20008C4F202080446D8F800000D46D8
:101FA00000F00F0081420DD9D8F8000020F00F009A
:101FB0002843C8F80000D8F8000000F00F00A8423D
:101FC00040F00281206840F62049C106C4F202694F
:101FD0000DD56169D9F8042002F07002914206D94A
:101FE000D9F8042022F070021143C9F80410010747
:101FF0000FD52169D9F80020702303EA121291420B
:1020000007D9D9F8002022F4E06242EA0111C9F8A8
:10201000001041070DD5E168D9F8002002F07002E8
:10202000914206D9D9F8002022F070021143C9F874
:10203000001081070DD5A168D9F8002002F00F0229
:10204000914206D9D9F8002022F00F021143C9F8B5
:102050000010C00774D1206881070DD5A168D9F898
:10206000002002F00F02914206D2D9F8002022F09F
:102070000F021143C9F80010D8F8001001F00F0149
:102080008D420DD2D8F8001021F00F012943C8F875
:102090000010D8F8001001F00F01A94240F0948020
:1020A00041070DD5E168D9F8002002F07002914295
:1020B00006D2D9F8002022F070021143C9F80010AE
:1020C00001070FD52169D9F80020702303EA121205
:1020D000914207D2D9F8002022F4E06242EA0111CD
:1020E000C9F80010C0060DD56069D9F8041001F0D8
:1020F0007001884206D2D9F8041021F0700108431B
:10210000C9F8040000F032F9D9F8001044F6E242B0
:1021100001F00F01C0F60002525C40F20401C2F26D
:102120000001096840F2080320FA02F2C2F200033B
:1021300008461A6001B0BDE8F04FFEF741BC00BF91
:10214000606840F61C47C4F2026798B302282BD09F
:10215000032835D1D9F874005FEA407A0BD4D9F856
:10216000740040F00400C9F87400D9F8740000F05D
:10217000040000900098FEF7E1FB4FF6F03BCFF62D
:10218000FF7B57F80B1049036AD4BAF1000F05D44E
:10219000D9F8740020F00400C9F8740057F81C0C3A
:1021A000800111D5606813E057F81C0C80030BD533
:1021B00002200DE057F81C0C400705D5002007E071
:1021C00057F81C1C490503D4012001B0BDE8F08F6D
:1021D000396821F0030108433860FEF7AFFB6168FE
:1021E0000646032941F2883A33D0022923D069B93F
:1021F000386810F00C0F3FF42EAFFEF79FFB801BEA
:1022000050454FF00300F3D9DFE700BF386800F016
:102210000C0004283FF41FAFFEF790FB801B5045D5
:102220004FF00300F2D9D0E7FEF788FB801B504542
:102230004FF00300C9D8386800F00C000828F3D12B
:1022400009E700BFFEF77AFB801B50454FF0030003
:10225000BBD8386800F00C000C28F3D1FBE600BFB7
:10226000064600BF57F80B0040043FF58EAFFEF75F
:1022700065FB801B02284FF00300F3D9A5E700009F
:1022800080B500F073F840F62041C4F2026109689D
:1022900044F6E24201F00F01C0F60002515CC84072
:1022A00040F20801C2F20001086080BD80B500F074
:1022B0005DF840F62041C4F202610A6844F6E24348
:1022C00002F00F02C0F600039A5CD04040F2080210
:1022D000C2F200021060096844F6F242C1F3021132
:1022E000C0F60002515CC84080BD000080B500F01F
:1022F0003DF840F62041C4F202610A6844F6E24328
:1023000002F00F02C0F600039A5CD04040F20802CF
:10231000C2F200021060096844F6F242C1F30221E1
:10232000C0F60002515CC84080BD000080B500F0DE
:102330001DF840F62041C4F202610A6844F6E24307
:1023400002F00F02C0F600039A5CD04040F208028F
:10235000C2F200021060496844F6F242C1F3021171
:10236000C0F60002515CC84080BD000040F6284124
:10237000C4F2026151F80C0C10F00C02086815D080
:102380000C2A04BF00F0030001280FD051F80C0CF8
:102390009FED350A00F00C00042842F20040C0F224
:1023A000F4001DD0082A18BF002019E051F8200CB5
:1023B000000205D4D1F8CC00C0F3033003E000BF25
:1023C00051F8200C000F44F67C53C0F6000353F87C
:1023D0002000002A00EE100A18BF0020B8EE400AC4
:1023E0000C2A18BF7047D1F800C00A680B68C2F306
:1023F00003220869013201EE102AC008B8EE411A22
:10240000DB069FED1B2A00EAE3705FEA8C7258BF7F
:10241000B0EE402A82EE010A6FF35F3001EE100A3F
:10242000C868B8EE411A6FF35F2002EE100A9FED04
:102430000F3AB8EE422A21EE031AC86831EE021AAA
:10244000B7EE002AC0F3066031EE021A013020EE2A
:10245000010A01EE100AB8EE411A80EE010ABCEE44
:10246000C00A10EE100A704700000000000000399A
:102470000024744B002804BF012070472DE9F0436D
:1024800081B040F694490446C4F2026959F8780CC8
:1024900059F86C1C227800F00C07D00601F00308F4
:1024A00022D42078C00779D0082F73D00C2F08BF12
:1024B000B8F1030F6ED040F60046C4F202666168C0
:1024C0003068B1F5803F00F0DF82B1F5A81F00F061
:1024D000D382B1F5A02F40F0E98240F48020306033
:1024E000306820F48010CDE217B30C2F08BFB8F18C
:1024F000010F1DD040F60046C4F20266E169306863
:10250000002900F0CD8140F001003060FEF716FA9E
:10251000054600BF3068400700F1D481FEF70EFA8F
:10252000401B02284FF00300F4D900F03ABD00BF71
:10253000E069002800F0D68340F60045C4F2026549
:10254000666AA86800025ABFD9F860000004A8684B
:1025500000F07040864240F27781002F40F03983CE
:10256000D9F80000400700F11983D9F8000040F0C5
:102570000400C9F80000D9F8000000F00400009041
:102580000098FEF763FBD9F8001021F00401C9F8A8
:10259000001005E36068002800F0A483207880071D
:1025A0002FD5042F20D00C2F08BFB8F1020F1BD05D
:1025B00040F60046C4F20266E1683068002900F087
:1025C000378240F480703060FEF7B8F9054600BFEE
:1025D000306840050CD4FEF7B1F9401B02284FF0DB
:1025E0000300F5D900F0DDBCE068002800F07A8334
:1025F00059F8840C216920F4F81040EA014049F8A8
:10260000840C207840F600470007C4F2026771D4BA
:102610002078400700F1C6802078800600F12881EC
:102620002078000600F162812078400600F1AC813C
:10263000A56B002D00F0D28459F8780C00F00C0046
:102640000C2840F0618259F86C1C59F8600C012D7F
:1026500000F04883E26B01F00303934240F04283B1
:10266000226CC1F30323013A934240F03B83626C36
:1026700001F47041914240F03583A26C01466FF342
:102680005F21013A914240F02D83E16CC0F3462274
:1026900001398A4240F02683216DC0F30642013998
:1026A0008A4240F01F83616DC0F3066001398842A1
:1026B00040F0188359F85C0CE16DC0F3CC008842FF
:1026C00000F08C8459F86C0C20F0100049F86C0C68
:1026D000FEF734F90546FEF731F9A842FBD0E06D6C
:1026E000C00049F85C0C59F86C0C40F0100000F088
:1026F00073BC00BFD9F800005FEA40780BD4D9F86A
:10270000000040F00400C9F80000D9F8000000F013
:102710000400009000984FF62846CFF6FF76B8598F
:10272000C00713D1B85940F00100B851FEF706F9BF
:10273000054600BFB859C00708D1FEF7FFF8401B97
:102740000228F7D9032001B0BDE8F0836069D9F809
:102750005C10002800F0E280A06901F080529042F5
:1027600000F0328301F04062B2F1006F00F0BA82F3
:10277000490140F12283D9F85C0020F0A050C9F84B
:102780005C00FEF7DBF80546D9F85C00000140F17B
:102790001383FEF7D3F8401B05284FF00300F3D94D
:1027A00000F0FFBBD9F800005FEA40780BD4D9F8FD
:1027B000000040F00400C9F80000D9F8000000F063
:1027C0000400009000984FF62846CFF6FF76B859DF
:1027D000C00713D1B85940F00100B851FEF7AEF868
:1027E000054600BFB859C00708D1FEF7A7F8401B3F
:1027F00002284FF00300F5D9D3E300BFA068C1075A
:1028000040F0A280D9F85C10002821F00101C9F83D
:102810005C10D9F85C1021F00401C9F85C1040F09C
:10282000A180FEF78BF8054641F28836D9F85C00A6
:10283000800740F19782FEF781F8401BB0424FF0CD
:102840000300F3D9ADE300BFA868B6F1404F40F4F0
:102850000000A860A86820F0704040EA0600A86068
:10286000C0F0AC80E868216A20F01F000843F7E15F
:10287000E16A3868002900F0ED8040F4805038604B
:10288000FEF75CF8054600BF386880043FF5C8AE27
:10289000FEF754F8401B02284FF00300F4D980E300
:1028A00020F001003060FEF749F805463068400727
:1028B0007FF5F7ADFEF742F8401B02284FF003000A
:1028C000F4D96EE3B06840F40000B060B168606AAB
:1028D00021F070410143B0F1404FB160C0F09880E9
:1028E000F068216A20F01F00084337E2216B386846
:1028F000002900F0F78040F480403860FEF71EF8B1
:10290000054600BF386800043FF58EAEFEF716F8A6
:10291000401B02284FF00300F4D942E321F0A050FD
:10292000C9F85C00FEF70AF8054600BFD9F85C005C
:10293000000140F15F82FEF701F8401B05284FF0CF
:102940000300F3D92DE300BFD9F85C10400705D58B
:1029500041F00400C9F85C00D9F85C1041F00100B6
:10296000C9F85C00FDF7EAFF054641F2883600BF72
:10297000D9F85C00800731D4FDF7E0FF401BB0427E
:102980004FF00300F4D90CE3606B002800F0F280F4
:10299000B86840F40000B860B968D4E9090221F0D1
:1029A0007061B0F1404F41EA0201B960C0F044816A
:1029B000F868216A20F01F000843DFE2B6F1FF3F0C
:1029C00040F32881E968206AB6F1804FC0F0448165
:1029D00021F4F84141EA802042E100BFA168D9F822
:1029E0005C00090600F1B28020F0800041F28836D8
:1029F000C9F85C00D9F85C00000540F1B881FDF72A
:102A00009DFF401BB0424FF00300F3D9C9E200BF65
:102A1000B0F1FF3F40F37281F268216AB0F1804F5C
:102A2000C0F0988122F4F84040EA812096E100BF8E
:102A300020F480703060FDF781FF05463068400566
:102A40007FF5DFADFDF77AFF401B02284FF0030052
:102A5000F4D9A6E220F480503860FDF76FFF0546F8
:102A6000386880047FF5DCADFDF768FF401B022865
:102A70004FF00300F4D994E240F4802030603068D5
:102A800040F480103060306840F480303060FDF7F2
:102A900055FF0546306880033FF580ADFDF74EFFDA
:102AA000401B64284FF00300F4D97AE220F4803010
:102AB00030603068002920F480203060306820F4D5
:102AC00080103060E3D1FDF739FF054630688003A0
:102AD0007FF564ADFDF732FF401B64284FF0030023
:102AE000F4D95EE220F480403860FDF727FF054608
:102AF000386800047FF598ADFDF720FF401B0228E1
:102B00004FF00300F4D94CE2386820F08070386050
:102B1000FDF714FF022D05460CD13868800140F105
:102B20007581FDF70BFF401B02284FF00300F4D91D
:102B300037E200BF3868800140F1F681FDF7FEFE04
:102B4000401B02284FF00300F4D92AE240F0800035
:102B500041F28836C9F85C00D9F85C00000500F144
:102B60000681FDF7EBFE401BB0424FF00300F3D9A6
:102B700017E200BF386820F010003860FDF7DEFE75
:102B8000054600BF386880067FF552ADFDF7D6FEDA
:102B9000401B02284FF00300F4D902E2FEF756F87A
:102BA00020F48031B1F5003F3CD10021B6F1805FC7
:102BB00038BF012142F20000C4F20200026822F094
:102BC0000F020A440260006800F00F00884240F0E3
:102BD0008980A86840F40000A860A968606A21F0B4
:102BE00070410143B0F1404FA96005D3E868216A04
:102BF00020F01F0008438DE0B0F1FF3F76DDEA686A
:102C0000216AB0F1804FC0F0818022F4F84040EAA0
:102C100081207FE0E868216A20F4787040EA411062
:102C20001EE000BF0021B1EB167F40F0AD80B0F593
:102C3000803F57D10321BDE7B0F1FF3F40F37C81D6
:102C4000FA68216AB0F1804FC0F0948122F4F84014
:102C500040EA812092E100BF21F4782141EAC030AE
:102C6000002FE86057D1D9F80000400714D4D9F8F4
:102C7000000040F00400C9F80000D9F8000000F09E
:102C8000040000900098FDF7E1FFD9F8001021F052
:102C90000401C9F8001001E0FDF7D8FF20F48031ED
:102CA000B1F5003F14D10021B6F1805F38BF01219A
:102CB00042F20000C4F20200026822F00F020A444D
:102CC0000260006800F00F00884224D00AE000BFD4
:102CD0000021B1EB167F63D1B0F5803F02D1032113
:102CE000E6E700BF012001B0BDE8F083E868216A93
:102CF00020F4787040EA41100CE000BFF068216ACF
:102D000020F4787040EA411028E000BF22F47820D7
:102D100040EAC130E860FFF729FB59F8741C44F61B
:102D2000E24201F00F01C0F60002515C40F20802DD
:102D300020FA01F140F20400C2F200000068C2F281
:102D400000021160FDF73CFE002840F02A81FFF7E9
:102D5000A8BB00BF22F4782040EAC130F060FFF742
:102D6000A0BB00BFD9F85C00000600F1ED80B8F10F
:102D7000000F3FF551ACD9F8000020F00400C9F86D
:102D80000000FFF749BC00BFB6F1005F40F20C81C4
:102D900000287FF40FAFB6F1405F98BF012109E72B
:102DA000B6F1005F40F20A8100287FF481AFB6F1EE
:102DB000405F98BF01217BE7A069D9F85C1021F042
:102DC00080510843C9F85C00D9F85C0040F080608D
:102DD000C9F85C00FDF7B2FD054600BFD9F85C00FC
:102DE000000107D4FDF7AAFD401B05284FF00300A2
:102DF000F4D9D6E0B8F1000F3FF50AACD9F80000DD
:102E000020F00400C9F80000FFF702BCD9F8000068
:102E10005FEA407C0BD4D9F8001041F00401C9F8F6
:102E20000010D9F8001001F00401009100994FF64C
:102E30000C48CFF6FF7857F808E057F808304FF6FF
:102E4000037623F4802347F8083059F86C3CD4E922
:102E50001102B343D4E90F656FF0FF013343184308
:102E600001EB05214FF47E43084349F86C0C59F8F7
:102E7000600C0021C8F280010840511EE26C4FF442
:102E8000FE0503EB4222236D6FF35F2105EB034345
:102E9000656D92B24FF0FE4606EB0565084403F4FB
:102EA000FE03104405F0FE451844284449F8600C20
:102EB00059F86C0C20F0100049F86C0CE06DC00063
:102EC00049F85C0C59F86C0C40F0100049F86C0C97
:102ED00059F86C0CA16D20F00C0008435FEA4E31EC
:102EE00049F86C0C05D557F8080040F4802047F8E5
:102EF0000800BCF1000F05D4D9F8000020F0040050
:102F0000C9F80000386840F080703860FDF716FDA1
:102F10000446386880015BD4FDF710FD001B0228D1
:102F20004FF00300F5D93CE059F86C0C4FF6FC71FA
:102F3000CFF6F87108404FE0F868216A20F4787005
:102F400040EA41101AE000BFD9F85C0041F288362F
:102F500020F08000C9F85C00D9F85C0000057FF51E
:102F600006AFFDF7EBFC401BB0424FF00300F3D976
:102F700017E000BF22F4782040EAC130F8603868DA
:102F800040F010003860FDF7D9FC0546386880062F
:102F90003FF54EABFDF7D2FC401B02284FF003007B
:102FA000F4D901B0BDE8F083B6F1805F1AD10221F7
:102FB000B0F5803F08BF0121FCE500BFB6F1805F9E
:102FC00012D10221B0F5803F08BF012170E600BF99
:102FD00059F86C0C40F4802049F86C0C002001B0CA
:102FE000BDE8F0830121E5E5012161E6042888BF01
:102FF0007047DFE800F0031B13352D004EF2100080
:10300000CEF20000016821F00401016040F6E040CA
:10301000C4F20260016821F4400120E04EF2100089
:10302000CEF200000168022206E000BF4EF210005E
:10303000CEF200000168012221F00401016040F697
:10304000E040C4F20260016862F3975107E000BFFC
:103050004EF21000CEF20000016841F00401016060
:1030600070470000411E0020B0EB116F1CBF012013
:1030700070474EF21002CEF200025160906011686B
:1030800041F00301116070474EF21000CEF20000D3
:103090000068400744BF0420704740F6E040C4F297
:1030A0000260006802A1C0F3815051F8200070470F
:1030B000000000000100000002000000000000000D
:1030C00090F88410012904BF022070472421C0F821
:1030D000881001680A680B6822F0005223F001038F
:1030E0000B60002343660A602021C0F8881080F836
:1030F00084300020704700007047000070470000D7
:1031000090F88420012A04BF02207047B0B5242221
:10311000C0F888200268D0F864E0D2F800C01368D4
:10312000BEF1000F23F001031360936823F0606386
:1031300041EA0301916019D09368916844F6D45E26
:10314000490FC0F6000E44F6DC551EF80140C0F6EB
:103150000005C3F34263695CE400B4FBF1F11EF8BF
:103160000340EB5CE500B5FBF3F301E00121012333
:10317000A0F86A102021A0F86830C2F800C0C0F89A
:103180008810002180F884100020B0BD90F88420C1
:10319000012A04BF02207047B0B52422C0F888205D
:1031A0000268D0F864E0D2F800C01368BEF1000FE6
:1031B00023F001031360936823F0604341EA0301A5
:1031C000916019D09368916844F6D45E490FC0F6B7
:1031D000000E44F6DC551EF80140C0F60005C3F3AE
:1031E0004263695CE400B4FBF1F11EF80340EB5C60
:1031F000E500B5FBF3F301E001210123A0F86A101B
:103200002021A0F86830C2F800C0C0F88810002162
:1032100080F884100020B0BD7047000070470000A7
:1032200070B5026840F62F04D369116896681C4097
:10323000202C0BD101F0200406F080552D1916D05A
:10324000416F61B3BDE87040084700BF40F60F050D
:103250002B420CD00125C1F2000506EA050C40F214
:103260002015C0F200450D4015EB0C0556D1C46E7B
:10327000DD0615D5012C13D111F0100510D0102149
:1032800011629168490655D4B0F85C10B0F85E2020
:10329000B0F85E30002B18BF914240F00B8270BD39
:1032A0001A0606D501F0800206F40006921940F0D5
:1032B000F3805A0640F1D88011F0400200F0D4802B
:1032C000016851E8001F026821F0400142E8001344
:1032D000DBB1016851E8001F026821F0400142E8BB
:1032E000001393B1016851E8001F026821F040010A
:1032F00042E800134BB1016851E8001F026821F059
:10330000400142E80013002BDAD12021C0F88810D8
:1033100000218167BDE8704000F054BCDD0718BF94
:1033200011F4807540F0CC809D0706F0010E00F18D
:10333000D380DCE0D0F8802011688B6CB0F85C4062
:1033400099B2002900F09A80A14280F09780A0F8FD
:103350005E30116D81297BD0016851E8001F026841
:1033600021F4807142E80013BBB3016851E8001FEB
:10337000026821F4807142E8001373B3016851E8D8
:10338000001F026821F4807142E800132BB301682A
:1033900051E8001F026821F4807142E80013002BFD
:1033A000DAD11AE0016851E8021F026821F0010138
:1033B00042E80213DBB1016851E8021F026821F004
:1033C000010142E8021393B1016851E8021F02684B
:1033D00021F0010142E802134BB1016851E8021FDC
:1033E000026821F0010142E80213002BDAD120210A
:1033F000C0F88C100021C166016851E8001F026806
:1034000021F0100142E80013DBB1016851E8001F10
:10341000026821F0100142E8001393B1016851E8FD
:10342000001F026821F0100142E800134BB101684F
:1034300051E8001F026821F0100142E80013002B40
:10344000DAD1D0F8801004460846FDF7D9F82046B6
:1034500002210167B0F85C10B0F85E20891A89B2C9
:10346000BDE87040FFF748BE1A021DD511F080423A
:103470001AD0BDE87040FFF7CFBE00BF8C427FF48A
:103480000EAF126D812A7FF40AAF02220267BDE8F7
:103490007040FFF731BE00BF816F00293FF4FFAEDF
:1034A000BDE87040084700BFDA017FF5F8AEB1F122
:1034B000FF3FC8BF70BDBDE87040FFF71FBE00BF33
:1034C00001251562D0F8905045F00105C0F89050E4
:1034D0009D0706F0010E0AD5BEF1000F07D00224A9
:1034E0001462D0F8904044F00404C0F890405C07A7
:1034F0000AD5BEF1000F07D004251562D0F8905010
:1035000045F00205C0F890501D070CD501F02005CC
:1035100055EA0C0507D008251562D0F8905045F003
:103520000805C0F890501D050BD511F0806508D036
:103530004FF400651562D0F8905045F02005C0F8B2
:103540009050D0F89050002D3FF4A9AE9B060BD5BB
:1035500001F0200106F08053C91805D0416F19B160
:103560000446884722682046D0F89010926801F0FF
:10357000280102F04002891806D10446FFF74EFEEA
:103580000020C4F8900070BD016851E8001F026877
:1035900021F4907142E80013DBB1016851E8001F8B
:1035A000026821F4907142E8001393B1016851E878
:1035B000001F026821F4907142E800134BB10168CA
:1035C00051E8001F026821F4907142E80013002BBB
:1035D000DAD14FF6FE71CEF6FF7100BF026852E8F5
:1035E000022F03680A4043E80226C6B1026852E887
:1035F000022F03680A4043E8022686B1026852E8B7
:10360000022F03680A4043E8022646B1026852E8E6
:10361000022F03680A4043E80226002EDED1C16E65
:10362000012924D1016851E8001F026821F010012E
:1036300042E80013DBB1016851E8001F026821F085
:10364000100142E8001393B1016851E8001F0268BD
:1036500021F0100142E800134BB1016851E8001F4E
:10366000026821F0100142E80013002BDAD120217A
:10367000C0F88C100021C166026841679168490654
:1036800040F19880D0F88010002900F0938044F237
:103690006902C0F6000204460846CA66FDF704F84F
:1036A00000283FF4FCADD4F88000C16EBDE8704046
:1036B000084700BF891A00BF026852E8002F03685C
:1036C00022F4907243E80026DEB1026852E8002F2F
:1036D000036822F4907243E8002696B1026852E82B
:1036E000002F036822F4907243E800264EB102686E
:1036F00052E8002F036822F4907243E80026002E5F
:10370000DAD14FF6FE72CEF6FF7200BF036853E8BF
:10371000023F0668134046E80235C5B1036853E826
:10372000023F0668134046E8023585B1036853E856
:10373000023F0668134046E8023545B1036853E886
:10374000023F0668134046E80235002DDED12022F4
:10375000C0F88C200022C266426700BF026852E8AF
:10376000002F036822F0100243E80026DEB1026851
:1037700052E8002F036822F0100243E8002696B1B9
:10378000026852E8002F036822F0100243E8002686
:103790004EB1026852E8002F036822F0100243E89D
:1037A0000026002EDAD1022289B20267BDE87040FD
:1037B000FFF7A2BCBDE87040FFF730BD10B5D8B12F
:1037C0000446D0F8880028B9002084F884002046F8
:1037D00000F026F82420C4F888002068A16A026856
:1037E000002922F0010202601CBF204600F012FBFB
:1037F000204600F03FFC08B1012010BD2168486858
:1038000020F490404860886820F02A0088600868AA
:1038100040F0010220460A60BDE8104000F06EBB97
:10382000B0B5B8B00446002502A8C0213795CDE94F
:103830003555CDE93355FCF744FE206844F60001C8
:10384000C4F2000188422BD043F60001C4F201010A
:1038500088425DD1002003900120029002A8FEF76B
:10386000B7F8002818BFFCF7C7FE40F68C40C4F23A
:10387000026081693D2441F480418161816901F4E4
:10388000804101910199016841F0010101600068E6
:1038900000F00100019001984FF4C06022E000BFE9
:1038A0000420029002A80395FEF792F8002818BFA2
:1038B000FCF7A2FE40F68C40C4F2026001693F248E
:1038C00041F480210161016901F480210191019994
:1038D000016841F001010160006800F00100019001
:1038E0000198A0203390022034900020CDE93500CB
:1038F000072037900020C4F2022033A9FCF7FCFE19
:10390000204600210022FDF7E7F82046FDF7D2F817
:1039100038B0B0BD2DE9F04381B00446D0F88C003A
:1039200020281EBF022001B0BDE8F0830E4600290A
:103930004FF0010018BF002A02D101B0BDE8F083AA
:103940002068994681681546490603D5816821F0AB
:103950004001816000202221C4F89000C4F88C103E
:10396000E066FCF7EBFFA4F85C50A4F85E50A16899
:103970008046C9B1B1F1805F12D0B1F5805F17D137
:103980002069FF27014600281CBF31460026002879
:1039900008BF40F2FF17A4F8607035460E4617E0E6
:1039A000206918B13F2706E0206918B17F2702E09F
:1039B000002700E0FF270025A4F8607008E000BFA2
:1039C000384006F8010BB4F85E000138A4F85E0038
:1039D000B4F85E0090B12046202100224346CDF885
:1039E000009000F04DFC88B92068002E406AE7D1B5
:1039F000384025F8020B0026E5E700BF0020202113
:103A0000C4F88C1001B0BDE8F08300BF0320202172
:103A1000C4F88C1001B0BDE8F08300002DE9F0413E
:103A20000446D0F8880020281CBF0220BDE8F081A1
:103A300000294FF0010018BF002A01D1BDE8F08134
:103A40002068884681681D461646090603D58168A8
:103A500021F0800181600020C4F890002120C4F88A
:103A60008800FCF76BFFA4F85460A4F85660A168C6
:103A70000646B1F5805F02D12069002864D0474630
:103A80000020B4F856202168002A65D06A1C26D090
:103A9000002D51D0804600BFC869000608D4FCF74D
:103AA0004DFF801BA84200F2818021680868F3E77F
:103AB00017B117F8010B04E038F8020B00276FF379
:103AC0005F208862B4F856000138A4F85600B4F8B4
:103AD00056000028E0D13FE0CA69120609D4CA693D
:103AE000120606D4CA6912065CBFCA695FEA02629E
:103AF000F2D51FB117F8012B05E000BF30F8022BFB
:103B000000276FF35F228A62B4F85620013AA4F8C6
:103B10005620B4F85620002AE1D11DE030F8022BDF
:103B200000276FF35F228A62B4F85620013AA4F8A6
:103B30005620B4F856207AB1CA69120634D5002F3F
:103B4000ECD017F8012BEEE700274046B4F85620DA
:103B50002168002A7FF49AAFC86940061ED41DB3BD
:103B6000681C14D1C869400626D4C869400623D40D
:103B7000C869400620D4C86940064FF00000F1D55E
:103B80000DE000BF20680168C069400614D4FCF74E
:103B9000D5FE801BA842F5D908E000BF00202021F7
:103BA000C4F88810BDE8F081FCF7C8FE032020218E
:103BB000C4F88810BDE8F08100202021C4F88810E6
:103BC000BDE8F08170470000FEE70000FEE700005E
:103BD000FEE700007047000070B540F62C46C4F2C6
:103BE000026656F82C1C044621F0806046F82C0C26
:103BF000FCF7A4FE054600BF56F82C0C000105D5C5
:103C0000FCF79CFE401B0228F6D95CE0306840F6C9
:103C10000371884394E80E106FF0FF0505EB022254
:103C200008431043306030690021C8F2800100EA87
:103C3000010E591E4FF47E42236902EB4C224FF4D1
:103C4000FE0505EB034365696FF35F2192B24FF008
:103C5000FE4000EB0560714403F4FE03114400F0E4
:103C6000FE401944084430613068A16920F00C001E
:103C700008433060206A31680843306030684FF68E
:103C8000F87120F0100030607069E269884340EA02
:103C9000C2007061306840F01000306056F82C0CA3
:103CA00040F0806046F82C0CFCF748FE044600BF4C
:103CB00056F82C0C000144BF002070BDFCF73EFEFE
:103CC000001B0328F4D3032070BD000070B540F63C
:103CD0003046C4F2026656F8301C044621F080508B
:103CE00046F8300CFCF72AFE054600BF56F8300CAB
:103CF000800005D5FCF722FE401B0228F6D95CE0C7
:103D0000306840F60371884394E80E106FF0FF05A9
:103D100005EB022208431043306070690021C8F2AD
:103D2000800100EA010E591E4FF47E42236902EB26
:103D30004C224FF4FE0505EB034365696FF35F21E9
:103D400092B24FF0FE4000EB0560714403F4FE03B5
:103D5000114400F0FE401944084470613068A169C4
:103D600020F00C0008433060206A3168084330605E
:103D700030684FF6F87120F010003060B069E269E9
:103D8000884340EAC200B061306840F01000306003
:103D900056F8300C40F0805046F8300CFCF7CEFD61
:103DA000044600BF56F8300C800044BF002070BDB0
:103DB000FCF7C4FD001B0328F4D3032070BD0000F2
:103DC00070470000FCF7C0BD4EF6885CCEF2000CD8
:103DD000DCF80010012241F47001CCF8001040F62C
:103DE0000041C4F202610A600022CA610A624A62AA
:103DF0000B684FF6FF70CEF6F620184008608A6216
:103E0000086820F4802008604FF000600A654CF8D4
:103E1000800C7047816A0A070CD4CA0715D18A073B
:103E20001ED44A0727D4CA0630D48A0639D44A0693
:103E300042D457E00268D0F838C0536823F40043F6
:103E400043EA0C035360CA07E9D00268D0F82CC0DB
:103E5000536823F4003343EA0C0353608A07E0D528
:103E60000268D0F830C0536823F4803343EA0C036F
:103E700053604A07D7D50268D0F834C0536823F49A
:103E8000802343EA0C035360CA06CED50268D0F8FB
:103E90003CC0936823F4805343EA0C0393608A0682
:103EA000C5D50268D0F840C0936823F4005343EAB4
:103EB0000C0393604A0615D5D0F800C0436CDCF8BB
:103EC0000420B3F5801F22F4801242EA0302CCF8EA
:103ED000042007D1DCF80420836C22F4C0021A43CA
:103EE000CCF80420090658BF70470168C06C4A68C6
:103EF00022F400221043486070470000B0B582B041
:103F000004460020C4F89000FCF718FD216805461F
:103F10000A68120737D56FF07E4C20464FF4001127
:103F200000222B46CDF800C000F0AAF950B300BF24
:103F3000206850E8000F216820F0800041E800026E
:103F4000DAB1206850E8000F216820F0800041E8D5
:103F5000000292B1206850E8000F216820F0800034
:103F600041E800024AB1206850E8000F216820F0C3
:103F7000800041E80002002ADAD1032020218822B3
:103F80006BE000BF2168086840075DD56FF07E4C8C
:103F900020464FF4800100222B46CDF800C000F0EF
:103FA0006FF9002850D000BF206850E8000F21684A
:103FB00020F4907041E80002BAB3206850E8000F86
:103FC000216820F4907041E8000272B3206850E844
:103FD000000F216820F4907041E800022AB32068A5
:103FE00050E8000F216820F4907041E80002002A98
:103FF000DAD11AE0206850E8020F216820F00100B1
:1040000041E80202DAB1206850E8020F216820F08E
:10401000010041E8020292B1206850E8020F2168D5
:1040200020F0010041E802024AB1206850E8020F86
:10403000216820F0010041E80202002ADAD10320C1
:1040400020218C2209E000BF2020C4F88800C4F899
:104050008C00002170220020E166A150002184F82C
:10406000841002B0B0BD0000C06D0021A0F85E1049
:10407000FFF7D4B870B504462269D4E9021300688A
:1040800011436269E6690568114346F6F312CCF6FE
:10409000FF722A4011433143016041684FF2FF45EE
:1040A00021F440511943416042F20041A26940F0BD
:1040B0008053C5F200618B421CBF236A1A43836898
:1040C000C1F2FF152B401A438260C26A636A22F074
:1040D0000F021A4344F6FF73C4F200039842C2620F
:1040E0001ADD42F2FF32C4F20062904230DC45F247
:1040F0000001C4F20001884200F07E8043F6000116
:10410000C4F20101884257D101200021FCF7ECFFE5
:10411000B6F5004F33D056E044F20041C4F200013E
:10412000884225D044F60001C4F20001884200F024
:104130009D8044F60041C4F2000188423CD1082031
:104140000021FCF7D1FFB6F5004F18D03BE000BFCF
:1041500042F20042C4F20062904255D088422BD114
:1041600000200021FCF7C0FF002853D142E000BF2F
:1041700002200021FCF7B8FFB6F5004F23D1C8B3E9
:10418000616A44F6BC52C0F6000232F8111062684F
:10419000B0FBF1F0510801EB4000B0FBF2F04FF63C
:1041A000EF72A0F11001914258D84FF6F071C0F3B0
:1041B0004202084010441BE000200021FCF794FF5D
:1041C000B6F5004FDBD0A8B1616A44F6BC52C0F628
:1041D000000232F811106268B0FBF1F000EB5200FF
:1041E000B0FBF2F04FF6EF72A0F11001914235D81A
:1041F0002168C860002032E010200021FCF774FF25
:10420000B6F5004FDFD1BAE720200021FCF76CFFA4
:104210000028EFD0616A44F6BC52C0F6000232F8C2
:1042200011106268B0FBF1F102EB420081424FF0E5
:10423000010014D31303994211D808020B0E10EB9E
:10424000520043F100010023FCF77EF84FF60052C4
:10425000A0F54071C0F20F029142C9D301204FF086
:104260000111A1660021C4E91D1170BD04200021C7
:10427000FCF73AFFB6F5004F3FF481AFA3E700002B
:104280002DE9F041804600681546C2690E4611408E
:10429000891BB1FA81F149098D4223D1069C2CB3C7
:1042A000611C29D1C1693140891BB1FA81F14909E9
:1042B0008D4217D1C1693140891BB1FA81F1490999
:1042C0008D420FD1C1693140891BB1FA81F1490991
:1042D0008D4207D1C1693140891BB1FA81F1490989
:1042E0008D42DFD00020BDE8F08100BFFCF726FB47
:1042F0000320BDE8F08100BF1F4607E0C0693040E1
:10430000801BB0FA80F040098542EBD1FCF716FB28
:10431000C01BA04284BF0320BDE8F081D8F8000094
:1043200001684907EAD5402E18BF802EE6D0C16942
:10433000090700F1A180C1690905DFD54FF40061CB
:104340000162D8F8000050E8000FD8F8001020F4FF
:10435000907041E800020AB3D8F8000050E8000F5E
:10436000D8F8001020F4907041E80002B2B1D8F8FB
:10437000000050E8000FD8F8001020F4907041E8D9
:1043800000025AB1D8F8000050E8000FD8F8001029
:1043900020F4907041E80002002AD2D14FF6FE705E
:1043A000CEF6FF70D8F8001051E8021FD8F80020B0
:1043B000014042E80213F3B1D8F8001051E8021F9F
:1043C000D8F80020014042E80213A3B1D8F8001049
:1043D00051E8021FD8F80020014042E8021353B10F
:1043E000D8F8001051E8021FD8F80020014042E838
:1043F0000213002BD6D1D8F86C0001282CD1D8F8A4
:10440000000050E8000FD8F8001020F0100041E83C
:1044100000020AB3D8F8000050E8000FD8F80010E6
:1044200020F0100041E80002B2B1D8F8000050E8D6
:10443000000FD8F8001020F0100041E800025AB137
:10444000D8F8000050E8000FD8F8001020F0100055
:1044500041E80002002AD2D120200021C8F88C00B7
:10446000C8F86C10C8F87410C8F89000032088F8D9
:104470008410BDE8F08100BF08210162D8F8000077
:1044800050E8000FD8F8001020F4907041E80002C6
:104490000AB3D8F8000050E8000FD8F8001020F454
:1044A000907041E80002B2B1D8F8000050E8000F67
:1044B000D8F8001020F4907041E800025AB1D8F802
:1044C000000050E8000FD8F8001020F4907041E888
:1044D0000002002AD2D14FF6FE70CEF6FF70D8F857
:1044E000001051E8021FD8F80020014042E80213F2
:1044F000F3B1D8F8001051E8021FD8F800200140AD
:1045000042E80213A3B1D8F8001051E8021FD8F80E
:104510000020014042E8021353B1D8F8001051E8DE
:10452000021FD8F80020014042E80213002BD6D128
:10453000D8F86C0001282CD1D8F8000050E8000F02
:10454000D8F8001020F0100041E800020AB3D8F8B3
:10455000000050E8000FD8F8001020F0100041E8EB
:104560000002B2B1D8F8000050E8000FD8F80010EF
:1045700020F0100041E800025AB1D8F8000050E8DD
:10458000000FD8F8001020F0100041E80002002AC7
:10459000D2D12020C8F88C0000200821C8F86C0077
:1045A000C8F87400C8F8901088F884000120BDE8AD
:1045B000F081000040F29800C2F20000FEF730BE29
:1045C00040F22C10C2F20000FEF72ABEFEE7000007
:1045D000A8B0FCF7C7F910A804305C21FBF771FF05
:1045E00000200024FCF7B4FA10B172B6FEE700BF59
:1045F000102001211090CDE917104FF08040199044
:1046000010A81E94FDF736FF10B172B6FEE700BF8A
:104610001F200A9000240AA80021CDE90B44CDE90F
:104620000D440F94FDF7AEFC10B172B6FEE700BF6B
:1046300040F68C40C4F20260016844F6000541F087
:10464000010101600068C4F2000500F00100109053
:10465000109840F22C104FF41651C2F200000C22B8
:10466000C0E90051C0E90244C0E90442C0E906447F
:10467000C0E908448462FFF7A1F818B172B600BF20
:10468000FEE700BF40F22C10C2F200000021FEF74E
:104690007DFD18B172B600BFFEE700BF40F22C10DE
:1046A000C2F200000021FEF72BFD18B172B600BF68
:1046B000FEE700BF40F22C10C2F20000FEF700FD42
:1046C00010B172B6FEE700BF40F2980005F57041E8
:1046D0000023C2F200000C274FF4165280E80E00AF
:1046E000C0E90333C0E90573C0E90733C0E9093302
:1046F000FFF764F810B172B6FEE700BF40F2980011
:10470000C2F200000021FEF741FD18B172B600BFF1
:10471000FEE700BF40F29800C2F200000021FEF761
:10472000EFFC18B172B600BFFEE700BF40F2980080
:10473000C2F20000FEF7C4FC10B172B6FEE700BF83
:104740003F20FCF7A1F940F22C10C2F200000068F3
:10475000082101620221016204210162012101623A
:1047600010210162C169890617D5416A109110991B
:10477000C169890611D5416A10911099C1698906EC
:104780000BD5416A10911099C169890605D5416A16
:1047900010911099C1698906E7D440F22C112020AC
:1047A000C2F20001C1F88C00C1F888004FF0000A85
:1047B00040F6B8304AF20109C1F890A0FBF788FF33
:1047C00040F27005C2F20005681C0990A81C079011
:1047D000E81C0590281D0490681D0390A81D0290F8
:1047E000E81D40F29807019005F10800C2F20007A9
:1047F0004FF0010B009010E0069E10AD28463246A7
:10480000FBF71AFE384629463246C823FFF706F959
:104810004FF0010B25464FF0000A38462946012289
:104820004FF0FF33C5E900AAC5E902AAFFF772F805
:104830000028F2D109993846012264230127FFF7A5
:1048400069F840F22C140028C2F200044FF0080668
:1048500040F0C38040F29807C2F20007079938463B
:1048600001226423FFF756F810B10227B5E000BF1C
:104870000599384601226423FFF74CF810B103274D
:10488000ABE000BF0499384601226423FFF742F8E9
:1048900010B10427A1E000BF039938460122642328
:1048A000FFF738F810B1052797E000BF02993846A6
:1048B00001226423FFF72EF810B106278DE000BF18
:1048C0000199384601226423FFF724F810B1072725
:1048D00083E000BF40F298000099C2F2000001227C
:1048E0006423FFF717F808B108276BE040F2700067
:1048F000C2F2000000F1090140F29800C2F200008B
:1049000001226423FFF706F810B109275AE000BF1F
:1049100040F27000C2F2000000F10A0140F298007B
:10492000C2F2000001226423FEF7F4FF10B10A274F
:1049300048E000BF40F27000C2F2000000F10B013D
:1049400040F29800C2F2000001226423FEF7E2FF69
:1049500010B10B2736E000BF40F27000C2F2000039
:1049600000F10C0140F29800C2F200000122642321
:10497000FEF7D0FF10B10C2724E000BF40F270001A
:10498000C2F2000000F10D0140F29800C2F20000F6
:1049900001226423FEF7BEFF10B10D2712E000BF15
:1049A00040F27000C2F2000000F10E0140F29800E7
:1049B000C2F2000001226423FEF7ACFF002800F0E1
:1049C0006D810E2740F2700508264FF0010BC2F2F0
:1049D000000540F22C14C2F2000420680221066295
:1049E0000162042101621021C0F820B00162C16996
:1049F000890617D5416A10911099C169890611D5A8
:104A0000416A10911099C16989060BD5416A1091CC
:104A10001099C169890605D5416A10911099C1693B
:104A20008906E7D42020C4F88C00C4F88800002050
:104A3000C4F89000C5E90400C5E90600C5E908000E
:104A4000204629463A46C823FEF7E8FFFBF776FFE3
:104A5000074600BF2068C169490605D4FBF76EFF11
:104A6000C01B6528F6D32068C16940F270050907AC
:104A700048BF0662C2F200054FF020084FF0000A5E
:104A800005F11001204601224FF4FA73C4F88C801E
:104A9000C4F890A0FEF73EFF40F298070028C2F24B
:104AA00000077FF4BAAE2C4640F22C154FF0010BF4
:104AB00000260027C2F200054FF0080A28680122EC
:104AC000C1693223090748BFC0F820A0A01900F12E
:104AD00011012846C5F88C80C5F89070FEF71AFFC2
:104AE00070B90136172E0BF1010BE7D140F2980790
:104AF0004FF0180B4FF00508C2F200070AE000BFA4
:104B000040F29807BBF1050F4FF00508C2F200070D
:104B1000FFF47EAEA31E0020002216E040F27004D7
:104B20000898C2F200042044C08940F2980760450A
:104B3000C2F200073FF460AE013218FA82F190B27F
:104B4000594503F101033FF663AE211811F8106FC8
:104B5000A6F1F805082DEFD3002EEDD04E78032EE8
:104B6000EAD18E78751E132DE6D8751D2844584558
:104B70000695E1D806F1030E08900EF03E0A4FF6B6
:104B8000FF7C1846857CC67C85EA0C0589EA5504BD
:104B9000EF0708BF6C0889EA5407E50708BF6708F4
:104BA00089EA5705FC0708BF7D0889EA5507EC0725
:104BB00008BF6F0889EA5705FC0708BF7D0889EA26
:104BC0005507EC0708BF6F0889EA5705FC0708BFBF
:104BD0007D0889EA5507EC0708BF6F08774089EA26
:104BE0005706FD0708BF7E0889EA5607F50708BF84
:104BF000770889EA5706FD0708BF7E0889EA560745
:104C0000F50708BF770889EA5706FD0708BF7E0841
:104C100089EA5607F50708BF770889EA5704FE07AF
:104C200008BF7C0889EA540CE50708BF4FEA540C1A
:104C3000BAF1020A00F10200A4D15FEACE773FF494
:104C40006DAF807C80EA0C0089EA5007C60708BF78
:104C5000470889EA5700FE0708BF780889EA500725
:104C6000C60708BF470889EA5700FE0708BF78084B
:104C700089EA5007C60708BF470889EA5700FE07B8
:104C800008BF780889EA5007C60708BF470889EABD
:104C9000570CF80708BF4FEA570C3FE740F2700582
:104CA000C2F2000540F2980005F10F01C2F20000C7
:104CB00001226423FEF72EFE0F2708264FF0010B7A
:104CC000002808BF102784E6F1EE100A4FF6FF71A6
:104CD000C0F2C03120EA010040F04070E1EE100A5D
:104CE00070470000000000000000010203040607F6
:104CF0000809000000000102030400000000024255
:104D00000100000000000242030000000000024217
:104D100006000000000402420100000000040242FC
:104D20000A0000000008024202000000000C0242DB
:104D30000D000000000C02420200000000080242C8
:104D40000A000000000402420000000000080242C5
:104D50000C000000000402420300000000040242B4
:104D60000400000000100242000000000010024297
:104D7000020000000010024203000000006CDC0290
:104D800000366E010024F400001BB70000093D004E
:104D900080841E00504B140040420F0000E02E00A3
:104DA0000070170000A00F0000B80B00801A06006A
:104DB000400D030088070200A086010001000200E8
:104DC0000400060008000A000C001000200040004B
:104DD0008000000101010103070100000804020432
:104DE00008010101084E000800000020100000002A
:104DF0009C020008184E000810000020B8070000B0
:104E0000BC020008000000000100000010000000CB
:084E100000093D000000000054
:0400000508000239B4
:00000001FF
